{
  "contractName": "Message",
  "abi": [
    {
      "anonymous": false,
      "inputs": [
        {
          "indexed": false,
          "internalType": "string",
          "name": "message",
          "type": "string"
        }
      ],
      "name": "MessageStored",
      "type": "event"
    },
    {
      "inputs": [],
      "name": "owner",
      "outputs": [
        {
          "internalType": "address",
          "name": "",
          "type": "address"
        }
      ],
      "stateMutability": "view",
      "type": "function",
      "constant": true
    },
    {
      "inputs": [
        {
          "internalType": "string",
          "name": "_message",
          "type": "string"
        }
      ],
      "name": "storeMessage",
      "outputs": [],
      "stateMutability": "nonpayable",
      "type": "function"
    },
    {
      "inputs": [],
      "name": "retrieveMessage",
      "outputs": [
        {
          "internalType": "string",
          "name": "",
          "type": "string"
        }
      ],
      "stateMutability": "view",
      "type": "function",
      "constant": true
    }
  ],
  "bytecode": "0x608060405234801561001057600080fd5b50336000806101000a81548173ffffffffffffffffffffffffffffffffffffffff021916908373ffffffffffffffffffffffffffffffffffffffff1602179055506108e4806100606000396000f3fe608060405234801561001057600080fd5b50600436106100415760003560e01c8063485caefc146100465780638da5cb5b14610064578063d4e36ba714610082575b600080fd5b61004e61009e565b60405161005b919061034a565b60405180910390f35b61006c6101be565b60405161007991906103ad565b60405180910390f35b61009c60048036038101906100979190610511565b6101e2565b005b606060008054906101000a900473ffffffffffffffffffffffffffffffffffffffff1673ffffffffffffffffffffffffffffffffffffffff163373ffffffffffffffffffffffffffffffffffffffff161461012e576040517f08c379a0000000000000000000000000000000000000000000000000000000008152600401610125906105a6565b60405180910390fd5b6001805461013b906105f5565b80601f0160208091040260200160405190810160405280929190818152602001828054610167906105f5565b80156101b45780601f10610189576101008083540402835291602001916101b4565b820191906000526020600020905b81548152906001019060200180831161019757829003601f168201915b5050505050905090565b60008054906101000a900473ffffffffffffffffffffffffffffffffffffffff1681565b60008054906101000a900473ffffffffffffffffffffffffffffffffffffffff1673ffffffffffffffffffffffffffffffffffffffff163373ffffffffffffffffffffffffffffffffffffffff1614610270576040517f08c379a0000000000000000000000000000000000000000000000000000000008152600401610267906105a6565b60405180910390fd5b806001908161027f91906107dc565b507f22c2a3a1dcfcd9a26676800829d4de849e614f2861c6969a30cf5881ceb19b82816040516102af919061034a565b60405180910390a150565b600081519050919050565b600082825260208201905092915050565b60005b838110156102f45780820151818401526020810190506102d9565b60008484015250505050565b6000601f19601f8301169050919050565b600061031c826102ba565b61032681856102c5565b93506103368185602086016102d6565b61033f81610300565b840191505092915050565b600060208201905081810360008301526103648184610311565b905092915050565b600073ffffffffffffffffffffffffffffffffffffffff82169050919050565b60006103978261036c565b9050919050565b6103a78161038c565b82525050565b60006020820190506103c2600083018461039e565b92915050565b6000604051905090565b600080fd5b600080fd5b600080fd5b600080fd5b7f4e487b7100000000000000000000000000000000000000000000000000000000600052604160045260246000fd5b61041e82610300565b810181811067ffffffffffffffff8211171561043d5761043c6103e6565b5b80604052505050565b60006104506103c8565b905061045c8282610415565b919050565b600067ffffffffffffffff82111561047c5761047b6103e6565b5b61048582610300565b9050602081019050919050565b82818337600083830152505050565b60006104b46104af84610461565b610446565b9050828152602081018484840111156104d0576104cf6103e1565b5b6104db848285610492565b509392505050565b600082601f8301126104f8576104f76103dc565b5b81356105088482602086016104a1565b91505092915050565b600060208284031215610527576105266103d2565b5b600082013567ffffffffffffffff811115610545576105446103d7565b5b610551848285016104e3565b91505092915050565b7f4f6e6c79206f776e6572206163636f756e742070726f63657373696e67210000600082015250565b6000610590601e836102c5565b915061059b8261055a565b602082019050919050565b600060208201905081810360008301526105bf81610583565b9050919050565b7f4e487b7100000000000000000000000000000000000000000000000000000000600052602260045260246000fd5b6000600282049050600182168061060d57607f821691505b6020821081036106205761061f6105c6565b5b50919050565b60008190508160005260206000209050919050565b60006020601f8301049050919050565b600082821b905092915050565b6000600883026106887fffffffffffffffffffffffffffffffffffffffffffffffffffffffffffffffff8261064b565b610692868361064b565b95508019841693508086168417925050509392505050565b6000819050919050565b6000819050919050565b60006106d96106d46106cf846106aa565b6106b4565b6106aa565b9050919050565b6000819050919050565b6106f3836106be565b6107076106ff826106e0565b848454610658565b825550505050565b600090565b61071c61070f565b6107278184846106ea565b505050565b5b8181101561074b57610740600082610714565b60018101905061072d565b5050565b601f8211156107905761076181610626565b61076a8461063b565b81016020851015610779578190505b61078d6107858561063b565b83018261072c565b50505b505050565b600082821c905092915050565b60006107b360001984600802610795565b1980831691505092915050565b60006107cc83836107a2565b9150826002028217905092915050565b6107e5826102ba565b67ffffffffffffffff8111156107fe576107fd6103e6565b5b61080882546105f5565b61081382828561074f565b600060209050601f8311600181146108465760008415610834578287015190505b61083e85826107c0565b8655506108a6565b601f19841661085486610626565b60005b8281101561087c57848901518255600182019150602085019450602081019050610857565b868310156108995784890151610895601f8916826107a2565b8355505b6001600288020188555050505b50505050505056fea2646970667358221220df5d19366f004cc59eff1ed6081cb3b158b74b903bd1c7e517f939db2875c1bd64736f6c63430008130033",
  "immutableReferences": {},
  "source": "// contracts/Message.sol\r\n\r\n// SPDX-License-Identifier: MIT\r\npragma solidity >=0.4.22 <0.9.0;\r\n\r\nimport \"./Owner.sol\";\r\n\r\ncontract Message is Owner {\r\n    string private storedMessage;\r\n\r\n    event MessageStored(string message);\r\n\r\n    function storeMessage(string memory _message) public onlyOwner {\r\n        storedMessage = _message;\r\n        emit MessageStored(_message);\r\n    }\r\n\r\n    function retrieveMessage() public view onlyOwner returns (string memory) {\r\n        return storedMessage;\r\n    }\r\n}",
  "sourcePath": "D:\\chorn-projects\\chorn-react\\contracts\\Message.sol",
  "compiler": {
    "name": "solc",
    "version": "0.8.19+commit.7dd6d404.Emscripten.clang"
  },
  "schemaVersion": "3.4.16",
  "updatedAt": "2025-02-11T04:18:40.874Z",
  "networkType": "ethereum",
  "devdoc": {
    "kind": "dev",
    "methods": {},
    "version": 1
  },
  "userdoc": {
    "kind": "user",
    "methods": {},
    "version": 1
  }
}